:020000040800F2
:1000000000000220615600081D500008235000081F
:10001000295000082F50000835500008000000004B
:100020000000000000000000000000003B5000083D
:1000300049500008000000005750000865500008B3
:10004000B156000871500008B1560008B1560008BA
:10005000B1560008B1560008B1560008B156000864
:10006000B1560008B1560008B1560008B156000854
:10007000B1560008B1560008B1560008B156000844
:10008000B1560008B1560008B1560008B156000834
:10009000B15600087D500008B1560008B15600085E
:1000A000B1560008B1560008B1560008B156000814
:1000B00091500008B1560008B1560008B15600082A
:1000C000B1560008B1560008B1560008B1560008F4
:1000D000B1560008B1560008B1560008B1560008E4
:1000E000B1560008B1560008B1560008B1560008D4
:1000F000B1560008B1560008B1560008B1560008C4
:10010000B1560008B1560008B1560008B1560008B3
:10011000A5500008B1560008B1560008B1560008B5
:10012000B1560008B1560008B1560008B156000893
:10013000B1560008B1560008B1560008B156000883
:10014000B1560008B1560008B1560008B156000873
:10015000B1560008B1560008B1560008B156000863
:10016000B1560008B1560008B1560008B156000853
:10017000B1560008B1560008B1560008B156000843
:10018000B1560008B1560008B1560008B156000833
:10019000B156000800000000B1560008B156000832
:1001A000B1560008B1560008B1560008B156000813
:1001B000B1560008B1560008B1560008B156000803
:1001C000B1560008B1560008B1560008B1560008F3
:0801D000B1560008B156000809
:1001E00010B5054C237833B9044B13B10448AFF371
:1001F00000800123237010BDD80100200000000002
:10020000C40D010808B5034B1BB103490348AFF304
:10021000008008BD00000000DC010020C40D0108C2
:1002200001F0FF01102A2BDB10F0070F08D010F8A7
:10023000013B013A8B422DD010F0070F42B3F6D1AB
:10024000F0B441EA012141EA014122F007047FF0C4
:1002500000070023F0E80256083C85EA010586EA1B
:10026000010685FA47F5A3FA87F586FA47F6A5FA57
:1002700087F68EB9EED1F0BC01F0FF0102F0070263
:1002800032B110F8013B013A83EA010313B1F8D10E
:100290000020704701387047002D06BF35460338EF
:1002A000073815F0010F07D1013015F4807F02BF28
:1002B000013015F4C03F0130F0BC0138704700BF79
:1002C000034613F8012B002AFBD1181A0138704796
:1002D00081F0004102E000BF83F0004330B54FEAF7
:1002E00041044FEA430594EA050F08BF90EA020F64
:1002F0001FBF54EA000C55EA020C7FEA645C7FEAF7
:10030000655C00F0E2804FEA5454D4EB5555B8BF19
:100310006D420CDD2C4480EA020281EA030382EA8A
:10032000000083EA010180EA020281EA0303362D1C
:1003300088BF30BD11F0004F4FEA01314FF4801CEF
:100340004CEA113102D0404261EB410113F0004F01
:100350004FEA03334CEA133302D0524263EB4303B8
:1003600094EA050F00F0A780A4F10104D5F1200E56
:100370000DDB02FA0EFC22FA05F2801841F10001B1
:1003800003FA0EF2801843FA05F359410EE0A5F185
:1003900020050EF1200E012A03FA0EFC28BF4CF0B6
:1003A000020C43FA05F3C01851EBE37101F000456C
:1003B00007D54FF0000EDCF1000C7EEB00006EEB79
:1003C0000101B1F5801F1BD3B1F5001F0CD3490803
:1003D0005FEA30004FEA3C0C04F101044FEA44525A
:1003E00012F5800F80F09A80BCF1004F08BF5FEAE1
:1003F000500C50F1000041EB045141EA050130BDC1
:100400005FEA4C0C404141EB0101013C28BFB1F5D2
:10041000801FE9D291F0000F04BF01460020B1FA1D
:1004200081F308BF2033A3F10B03B3F120020CDAF0
:100430000C3208DD02F1140CC2F10C0201FA0CF0CE
:1004400021FA02F10CE002F11402D8BFC2F1200C33
:1004500001FA02F120FA0CFCDCBF41EA0C019040E9
:10046000E41AA2BF01EB0451294330BD6FEA040432
:100470001F3C1CDA0C340EDC04F11404C4F120021D
:1004800020FA04F001FA02F340EA030021FA04F32F
:1004900045EA030130BDC4F10C04C4F1200220FA86
:1004A00002F001FA04F340EA0300294630BD21FAC4
:1004B00004F0294630BD94F0000F83F4801306BF8A
:1004C00081F480110134013D4EE77FEA645C18BF7E
:1004D0007FEA655C29D094EA050F08BF90EA020F15
:1004E00005D054EA000C04BF1946104630BD91EA0D
:1004F000030F1EBF0021002030BD5FEA545C05D110
:100500004000494128BF41F0004130BD14F580044E
:100510003CBF01F5801130BD01F0004545F0FE41C2
:1005200041F470014FF0000030BD7FEA645C1ABFF7
:10053000194610467FEA655C1CBF0B46024650EA2E
:10054000013406BF52EA033591EA030F41F400215A
:1005500030BD00BF90F0000F04BF0021704730B5E0
:100560004FF4806404F132044FF000054FF00001B5
:1005700050E700BF90F0000F04BF0021704730B576
:100580004FF4806404F1320410F0004548BF40424B
:100590004FF000013EE700BF42004FEAE2014FEAA0
:1005A00031014FEA02701FBF12F07F4393F07F4F7B
:1005B00081F06051704732F07F4208BF704793F07E
:1005C0007F4F04BF41F40021704730B54FF4607491
:1005D00001F0004521F000411CE700BF50EA010294
:1005E00008BF704730B54FF000050AE050EA01023D
:1005F00008BF704730B511F0004502D5404261EBAD
:1006000041014FF4806404F132045FEA915C3FF4ED
:10061000D8AE4FF003025FEADC0C18BF03325FEA8A
:10062000DC0C18BF033202EBDC02C2F1200300FA3B
:1006300003FC20FA02F001FA03FE40EA0E0021FA60
:1006400002F11444BDE600BF70B54FF0FF0C4CF44E
:10065000E06C1CEA11541DBF1CEA135594EA0C0F00
:1006600095EA0C0F00F0DEF82C4481EA030621EA3B
:100670004C5123EA4C5350EA013518BF52EA033576
:1006800041F4801143F4801338D0A0FB02CE4FF028
:100690000005E1FB02E506F00042E0FB03E54FF058
:1006A0000006E1FB03569CF0000F18BF4EF0010E50
:1006B000A4F1FF04B6F5007F64F5407404D25FEA4C
:1006C0004E0E6D4146EB060642EAC62141EA5551FF
:1006D0004FEAC52040EA5E504FEACE2EB4F1FD0C41
:1006E00088BFBCF5E06F1ED8BEF1004F08BF5FEABF
:1006F000500E50F1000041EB045170BD06F0004671
:1007000046EA010140EA020081EA0301B4EB5C041D
:10071000C2BFD4EB0C0541EA045170BD41F4801115
:100720004FF0000E013C00F3AB8014F1360FDEBF3A
:10073000002001F0004170BDC4F10004203C35DA16
:100740000C341BDC04F11404C4F1200500FA05F399
:1007500020FA04F001FA05F240EA020001F000423A
:1007600021F0004110EBD37021FA04F642EB0601B0
:100770005EEA430E08BF20EAD37070BDC4F10C04DA
:10078000C4F1200500FA04F320FA05F001FA04F29E
:1007900040EA020001F0004110EBD37041F100018A
:1007A0005EEA430E08BF20EAD37070BDC4F1200595
:1007B00000FA05F24EEA020E20FA04F301FA05F2FD
:1007C00043EA020321FA04F001F0004121FA04F2A5
:1007D00020EA020000EBD3705EEA430E08BF20EA75
:1007E000D37070BD94F0000F0FD101F000464000AF
:1007F00041EB010111F4801F08BF013CF7D041EA31
:10080000060195F0000F18BF704703F00046520034
:1008100043EB030313F4801F08BF013DF7D043EA05
:100820000603704794EA0C0F0CEA135518BF95EABB
:100830000C0F0CD050EA410618BF52EA4306D1D142
:1008400081EA030101F000414FF0000070BD50EA61
:10085000410606BF1046194652EA430619D094EAEB
:100860000C0F02D150EA013613D195EA0C0F05D1D5
:1008700052EA03361CBF104619460AD181EA030129
:1008800001F0004141F0FE4141F470014FF00000E1
:1008900070BD41F0FE4141F4780170BD70B54FF07C
:1008A000FF0C4CF4E06C1CEA11541DBF1CEA1355FC
:1008B00094EA0C0F95EA0C0F00F0A7F8A4EB0504DE
:1008C00081EA030E52EA03354FEA013100F08880D5
:1008D0004FEA03334FF0805545EA131343EA12639E
:1008E0004FEA022245EA111545EA10654FEA002653
:1008F0000EF000419D4208BF964244F1FD0404F50C
:10090000407402D25B084FEA3202B61A65EB030567
:100910005B084FEA32024FF480104FF4002CB6EB24
:10092000020E75EB030E22BFB61A754640EA0C00A4
:100930005B084FEA3202B6EB020E75EB030E22BFE4
:10094000B61A754640EA5C005B084FEA3202B6EB25
:10095000020E75EB030E22BFB61A754640EA9C00E4
:100960005B084FEA3202B6EB020E75EB030E22BFB4
:10097000B61A754640EADC0055EA060E18D04FEA72
:10098000051545EA16754FEA06164FEAC30343EA12
:1009900052734FEAC2025FEA1C1CC0D111F4801FDF
:1009A0000BD141EA00014FF000004FF0004CB6E7D8
:1009B00011F4801F04BF01430020B4F1FD0C88BF77
:1009C000BCF5E06F3FF6AFAEB5EB030C04BFB6EB82
:1009D000020C5FEA500C50F1000041EB045170BD75
:1009E0000EF0004E4EEA113114EB5C04C2BFD4EBA2
:1009F0000C0541EA045170BD41F480114FF0000E26
:100A0000013C90E645EA060E8DE60CEA135594EAA1
:100A10000C0F08BF95EA0C0F3FF43BAF94EA0C0FA4
:100A20000AD150EA01347FF434AF95EA0C0F7FF419
:100A300025AF104619462CE795EA0C0F06D152EA6D
:100A400003353FF4FDAE1046194622E750EA410651
:100A500018BF52EA43067FF4C5AE50EA41047FF462
:100A60000DAF52EA43057FF4EBAE12E74FF0FF3CC7
:100A700006E000BF4FF0010C02E000BF4FF0010C98
:100A80004DF804CD4FEA410C7FEA6C5C4FEA430C11
:100A900018BF7FEA6C5C1BD001B050EA410C0CBF60
:100AA00052EA430C91EA030F02BF90EA020F0020C2
:100AB000704710F1000F91EA030F58BF994208BF29
:100AC00090422CBFD8176FEAE37040F001007047E6
:100AD0004FEA410C7FEA6C5C02D150EA013C07D13D
:100AE0004FEA430C7FEA6C5CD6D152EA033CD3D088
:100AF0005DF8040B704700BF8446104662468C4682
:100B00001946634600E000BF01B5FFF7B7FF0028B4
:100B100048BF10F1000F01BD4DF808EDFFF7F4FFDD
:100B20000CBF012000205DF808FB00BF4DF808ED68
:100B3000FFF7EAFF34BF012000205DF808FB00BF8B
:100B40004DF808EDFFF7E0FF94BF012000205DF8AD
:100B500008FB00BF4DF808EDFFF7CEFF94BF012062
:100B600000205DF808FB00BF4DF808EDFFF7C4FF5B
:100B700034BF012000205DF808FB00BF4FEA410CA4
:100B80007FEA6C5C02D150EA013C0AD14FEA430C87
:100B90007FEA6C5C02D152EA033C02D14FF00000C4
:100BA00070474FF0010070474FEA410212F5001202
:100BB00015D211D56FF47873B3EB625212D94FEAA4
:100BC000C12343F0004343EA505311F0004F23FA8E
:100BD00002F018BF404270474FF00000704750EAE3
:100BE000013005D111F0004008BF6FF000407047A0
:100BF0004FF00000704700BF4A0011D212F50012FA
:100C000011D20DD56FF47873B3EB62520ED44FEA64
:100C1000C12343F0004343EA505323FA02F07047E4
:100C20004FF00000704750EA013002D14FF0FF3022
:100C300070474FF0000070474FEA4102B2F1E043C5
:100C400024BFB3F5001CDCF1FE5C0DD901F0004CB3
:100C50004FEAC0024CEA5070B2F1004F40EB830003
:100C600008BF20F00100704711F0804F21D113F12F
:100C70003872BCBF01F00040704741F480114FEA68
:100C80005252C2F11802C2F1200C10FA0CF320FAF1
:100C900002F018BF40F001004FEAC1234FEAD3230E
:100CA00003FA0CFC40EA0C0023FA02F34FEA430378
:100CB000CCE77FEA625307D150EA01331EBF4FF001
:100CC000FE4040F44000704701F0004040F0FE401C
:100CD00040F40000704700BF53B94AB9002908BF6B
:100CE00000281CBF4FF0FF314FF0FF3000F0A6B9D5
:100CF000ADF1080C6DE904CE00F03CF8DDF804E03D
:100D0000DDE9022304B0704738B500220023044611
:100D10000D46FFF70BFF28B920462946BDE83840AD
:100D200000F00AB8204605F1004100F005F8404205
:100D300061EB410138BD00BFD0B50C4B0022064627
:100D40000F46FFF781FCFFF757FF0446FFF702FC51
:100D5000074B0022FFF778FC02460B463046394627
:100D6000FFF7BAFAFFF748FF2146D0BD0000F03D7B
:100D70000000F0412DE9F047089E0D4604460F465D
:100D8000002B4AD18A42944665D9B2FA82F343B124
:100D900002FA03FCC3F120029F4020FA02F217433B
:100DA0009C404FEA1C4E1FFA8CF5B7FBFEF1220C5B
:100DB0000EFB117742EA074201FB05F090420AD987
:100DC0001CEB020201F1FF3780F01C81904240F2DF
:100DD000198102396244121AA4B2B2FBFEF00EFB72
:100DE000102244EA024400FB05F5A5420AD91CEB97
:100DF000040400F1FF3280F00781A54240F2048133
:100E00006444023840EA0140641B00211EB1DC400A
:100E10000023C6E90043BDE8F0878B4208D9002EC5
:100E200000F0ED800021C6E900050846BDE8F08726
:100E3000B3FA83F1002949D1AB4202D3824200F2D6
:100E4000F880841A65EB030201201746002EE2D0D9
:100E5000C6E90047DFE702B9FFDEB2FA82F3002BF2
:100E600040F090808A1A4FEA1C471FFA8CFE01213D
:100E7000B2FBF7F507FB1520220C42EA00420EFBFD
:100E800005F0904208D91CEB020205F1FF3802D2AE
:100E9000904200F2CB804546121AA4B2B2FBF7F0A2
:100EA00007FB102244EA02440EFB00FEA64508D9C7
:100EB0001CEB040400F1FF3202D2A64500F2BB8015
:100EC0001046A4EB0E0440EA05409FE7C1F120075D
:100ED0008B4022FA07FC4CEA030C05FA01F420FAD5
:100EE00007F3FD404FEA1C492343B5FBF9F81FFA0D
:100EF0008CFE09FB18551C0C44EA054408FB0EF552
:100F0000A54202FA01F200FA01F00BD91CEB04042D
:100F100008F1FF3A80F08880A54240F28580A8F170
:100F200002086444641B9DB2B4FBF9F309FB13444B
:100F300045EA044403FB0EFEA64508D91CEB040455
:100F400003F1FF356CD2A6456AD9023B644443EAFB
:100F50000843A3FB0295A4EB0E04AC42C846AE4680
:100F600056D353D056B1B0EB080264EB0E0404FA2A
:100F700007F7CA40CC401743C6E900741846002161
:100F8000BDE8F087C3F1200102FA03FC20FA01F268
:100F900025FA01F19D402A434FEA1C471FFA8CFEB7
:100FA000B1FBF7F007FB1015110C41EA054100FBFE
:100FB0000EF58D4204FA03F408D91CEB010100F18F
:100FC000FF382FD28D422DD902386144491B92B28D
:100FD000B1FBF7F507FB151142EA014205FB0EF1E3
:100FE000914208D91CEB020205F1FF3816D291425A
:100FF00014D9023D6244521A45EA004138E73146AD
:10100000304608E73946E6E61046FBE64845A9D2F1
:10101000B9EB020865EB0C0E013BA3E74546EAE796
:101020002B4694E74046D1E7D0467BE7023D624439
:1010300032E708460AE76444023842E7704700BFD7
:1010400080B58CB000AF07F1240300221A605A600B
:101050009A603B1D2022002118460CF013F9324BF8
:101060004FF0A0421A60304B4FF430125A602E4BB2
:1010700000229A602C4B0022DA602B4B00221A616E
:10108000294B00225A61284B04229A61264B0022E8
:101090001A77254B01225A77234B01221A62224BE1
:1010A000002283F82420204B0022DA621E4B00220B
:1010B0001A631D4B002283F838201B4B0022DA6391
:1010C000194B002283F84020174804F085FD0346A1
:1010D000002B01D003F00FF800237B6207F12403FB
:1010E0001946114805F08EFC0346002B01D003F091
:1010F00002F80E4B7B600623BB600323FB607F235B
:101100003B6104237B610023BB613B1D19460648FC
:1011100004F024FF0346002B01D002F0ECFF00BFD7
:101120003037BD4680BD00BFF40100208000501D57
:1011300080B59EB000AF786007F1640300221A60AA
:101140005A609A60DA601A6107F110035422002194
:1011500018460CF097F87B681B68B3F1A04F33D1A9
:101160004FF400433B614FF000537B6507F11003E0
:10117000184608F045FC0346002B01D002F0BBFFE7
:10118000134BDB6C124A43F40053D364104BDB6CFB
:1011900003F40053FB60FB680D4BDB6C0C4A43F01F
:1011A0000403D3640A4BDB6C03F00403BB60BB682D
:1011B00002237B660323BB660023FB6607F16403FF
:1011C0001946044806F030FD00BF7837BD4680BDA3
:1011D000001002400008004880B487B000AFF860FB
:1011E000B9607A603B600023FB7507E0FB7D5A1C09
:1011F000FA751A46BB68134400221A70FB7D072B50
:10120000F4D9BB681A78FB68B3F90030DBB213433A
:10121000DAB2BB681A70BB6801331978FB68B3F99E
:1012200000301B121BB2DAB2BB6801330A43D2B2E0
:101230001A70BB6802331978FB68B3F90230DAB26E
:10124000BB6802330A43D2B21A70BB680333197801
:10125000FB68B3F902301B121BB2DAB2BB6803336E
:101260000A43D2B21A70BB6804331978FB68B3F929
:101270000430DAB2BB6804330A43D2B21A70BB68D6
:1012800005331978FB68B3F904301B121BB2DAB2CC
:10129000BB6805330A43D2B21A70BB6806331978AB
:1012A000FB68DB88DAB2BB6806330A43D2B21A7035
:1012B000BB6807331978FB68DB881B0A9BB2DAB27C
:1012C000BB6807330A43D2B21A707B6808221A70CF
:1012D0003B6800221A7040F2111318461C37BD46B5
:1012E0005DF8047B704780B487B000AFF860B960E8
:1012F0007A603B600023FB7507E0FB7D5A1CFA75A2
:101300001A46BB68134400221A70FB7D072BF4D9E0
:10131000BB681A78FB681B88DBB21343DAB2BB6880
:101320001A70BB6801331978FB681B881B0A9BB2D3
:10133000DAB2BB6801330A43D2B21A70BB68023317
:101340001978FB689A78BB6802330A43D2B21A70E4
:10135000BB6803331978FB689B88DAB2BB68033338
:101360000A43D2B21A70BB6804331978FB689B88B1
:101370001B0A9BB2DAB2BB6804330A43D2B21A70BA
:10138000BB6805331978FB689A79BB6805330A4353
:10139000D2B21A70BB6806331978FB681B89DAB2BF
:1013A000BB6806330A43D2B21A70BB680733197898
:1013B000FB681B891B0A9BB2DAB2BB6807330A437E
:1013C000D2B21A707B6808221A703B6800221A7029
:1013D0004FF4897318461C37BD465DF8047B70478F
:1013E00080B487B000AFF860B9607A603B600023DA
:1013F000FB7507E0FB7D5A1CFA751A46BB6813445F
:1014000000221A70FB7D072BF4D9BB681A78FB68A1
:1014100093F90030DBB21343DAB2BB681A70BB68D1
:1014200001331978FB685A78BB6801330A43D2B29A
:101430001A70BB6802331978FB6893F90230DAB28C
:10144000BB6802330A43D2B21A70BB6803331978FF
:10145000FB68DA78BB6803330A43D2B21A70BB6800
:1014600004331978FB689B88DAB2BB6804330A43FB
:10147000D2B21A70BB6805331978FB689B881B0AC7
:101480009BB2DAB2BB6805330A43D2B21A70BB68AA
:1014900006331978FB68DB88DAB2BB6806330A4387
:1014A000D2B21A70BB6807331978FB68DB881B0A55
:1014B0009BB2DAB2BB6807330A43D2B21A707B68B8
:1014C00008221A703B6800221A7040F21313184663
:1014D0001C37BD465DF8047B704780B487B000AF11
:1014E000F860B9607A603B600023FB7507E0FB7D24
:1014F0005A1CFA751A46BB68134400221A70FB7D09
:10150000072BF4D9BB681A78FB68B3F90030DBB25B
:101510001343DAB2BB681A70BB6801331978FB68F1
:10152000B3F900301B121BB2DAB2BB6801330A43B5
:10153000D2B21A70BB6802331978FB68B3F9023073
:10154000DAB2BB6802330A43D2B21A70BB68033303
:101550001978FB68B3F902301B121BB2DAB2BB6810
:1015600003330A43D2B21A70BB6804331978FB689C
:101570009B88DAB2BB6804330A43D2B21A70BB68E4
:1015800005331978FB689B881B0A9BB2DAB2BB68EB
:1015900005330A43D2B21A70BB6806331978FB6868
:1015A00093F90630DAB2BB6806330A43D2B21A7036
:1015B000BB6807331978FB68DA79BB6807330A43DD
:1015C000D2B21A707B6808221A703B6800221A7027
:1015D0004FF48A7318461C37BD465DF8047B70478C
:1015E00080B487B000AFF860B9607A603B600023D8
:1015F000FB7507E0FB7D5A1CFA751A46BB6813445D
:1016000000221A70FB7D072BF4D9BB681A78FB689F
:101610001B88DBB21343DAB2BB681A70BB680133B4
:101620001978FB681B881B0A9BB2DAB2BB680133CE
:101630000A43D2B21A70BB6802331978FB685B8820
:10164000DAB2BB6802330A43D2B21A70BB68033302
:101650001978FB685B881B0A9BB2DAB2BB6803335C
:101660000A43D2B21A70BB6804331978FB689B88AE
:10167000DAB2BB6804330A43D2B21A70BB680533CE
:101680001978FB689B881B0A9BB2DAB2BB680533EA
:101690000A43D2B21A70BB6806331978FB689A798C
:1016A000BB6806330A43D2B21A70BB680733197895
:1016B000FB68DA79BB6807330A43D2B21A707B68D9
:1016C00008221A703B6800221A7040F2151318465F
:1016D0001C37BD465DF8047B704780B487B000AF0F
:1016E000F860B9607A603B600023FB7507E0FB7D22
:1016F0005A1CFA751A46BB68134400221A70FB7D07
:10170000072BF4D9BB681A78FB68B3F90030DBB259
:101710001343DAB2BB681A70BB6801331978FB68EF
:10172000B3F900301B121BB2DAB2BB6801330A43B3
:10173000D2B21A70BB6802331978FB68B3F9023071
:10174000DAB2BB6802330A43D2B21A70BB68033301
:101750001978FB68B3F902301B121BB2DAB2BB680E
:1017600003330A43D2B21A70BB6804331978FB689A
:10177000B3F90430DAB2BB6804330A43D2B21A7048
:10178000BB6805331978FB68B3F904301B121BB230
:10179000DAB2BB6805330A43D2B21A70BB680633AB
:1017A0001978FB68B3F90630DAB2BB6806330A432E
:1017B000D2B21A70BB6807331978FB68B3F90630E8
:1017C0001B121BB2DAB2BB6807330A43D2B21A70DB
:1017D0007B6808221A703B6800221A704FF48B73E2
:1017E00018461C37BD465DF8047B704780B500AFD6
:1017F000044805F039FD00220121024805F098FE59
:1018000000BF80BDE8040020B0B48DB000AF7860A8
:10181000396000233B613B68FB6000237B614FF430
:101820000023BB610023FB6100233B6200237B623A
:101830000023BB620023FB627B681D4607F10C049A
:101840000FCC0FC50FCC0FC523682B6078683437D9
:10185000BD46B0BC7047000090B58FB000AF0446E5
:10186000084611461A462346FB8003467B710B4609
:101870007B8013463B71194AFB881380174A7B799A
:101880009370164A7B889380144A3B799371134A6C
:10189000B7F84830138107F10C0300211846FFF711
:1018A000B3FF07F10C03181D07F10C0303F10C0241
:1018B00007F1300103460948FFF715FD0346FB60B9
:1018C00007F1300207F10C031946054805F0F4FC56
:1018D00003469BB218463C37BD4690BD60020020CF
:1018E000E804002090B58FB000AF044608461146CA
:1018F0001A462346FB710346BB710B467B711346A8
:101900003B7197F907201B4B1A701A4ABB79537029
:1019100097F90520174B9A70164A3B79D370154AF0
:10192000B7F848309380134AB7F84C30D38007F1AA
:101930000C0300211846FFF767FF07F10C03181D81
:1019400007F10C0303F10C0207F1300103460948CB
:10195000FFF746FD0346FB6007F1300207F10C0379
:101960001946054805F0A8FC03469BB218463C37CB
:10197000BD4690BD6C020020E804002090B58FB0F9
:1019800000AF0446084611461A462346FB8003462C
:10199000BB800B467B8013463B80B7F90620184B73
:1019A0001A80B7F90420164B5A80B7F90220144B5D
:1019B0009A80134A3B88D38007F10C030021184614
:1019C000FFF722FF07F10C03181D07F10C0303F1C9
:1019D0000C0207F1300103460948FFF7FDFB0346FF
:1019E000FB6007F1300207F10C031946054805F0CA
:1019F00063FC03469BB218463C37BD4690BD00BF12
:101A000074020020E804002090B58FB000AF0446B7
:101A1000084611461A462346FB800346BB800B4608
:101A20007B8013467B70B7F906201A4B1A80B7F9F2
:101A30000420184B5A80174A7B88938097F901201D
:101A4000144B9A71134A97F84830D37107F10C037D
:101A500000211846FFF7D8FE07F10C03181D07F107
:101A60000C0303F10C0207F1300103460948FFF7AC
:101A700034FD0346FB6007F1300207F10C03194601
:101A8000054805F019FC03469BB218463C37BD4695
:101A900090BD00BF7C020020E804002090B58FB00C
:101AA00000AF0446084611461A462346FB8003460B
:101AB000BB800B467B8013467B70194AFB881380E2
:101AC000174ABB885380164A7B889380144A7B78D8
:101AD0009371134A97F84830D37107F10C03002132
:101AE0001846FFF791FE07F10C03181D07F10C03D0
:101AF00003F10C0207F1300103460948FFF770FDBE
:101B00000346FB6007F1300207F10C031946054854
:101B100005F0D2FB03469BB218463C37BD4690BD4C
:101B200084020020E804002090B58FB000AF044686
:101B3000084611461A462346FB800346BB800B46E7
:101B40007B8013463B80B7F90620184B1A80B7F903
:101B50000420164B5A80B7F90220144B9A80B7F92B
:101B60000020124BDA8007F10C0300211846FFF722
:101B70004BFE07F10C03181D07F10C0303F10C02D7
:101B800007F1300103460948FFF7A7FD0346FB6054
:101B900007F1300207F10C031946054805F08CFBEC
:101BA00003469BB218463C37BD4690BD8C020020D0
:101BB000E804002000000000F0B589B002AF034641
:101BC000FB718D4B00221A7001F066FA03467B759B
:101BD00070230193012300934FF000024FF00003A4
:101BE0000221002001F034FB322003F0D3FD40211C
:101BF000824805F07FFC0346002B49D007F10C0317
:101C00007F4A40217D4805F09BFB012003F0C2FD87
:101C10007B4B1B6840F2251293420CD1FB7BFB757A
:101C20003B7CBB75FB7D03F00103002B30D0724B76
:101C300001221A702CE0724B1B68B3F5987F05D116
:101C400007F10C03184600F0CBFB21E06C4B1B683E
:101C500040F23112934205D107F10C03184600F00F
:101C600013FC15E0664B1B68B3F5997F05D107F1AE
:101C70000C03184600F05CFC0AE0614B1B6840F264
:101C80003312934204D107F10C03184600F0A4FC70
:101C90005C4B00221A705C4B00221A7002F070FC40
:101CA00000F000FF594B00221A70594B1B7803F0CB
:101CB0000103DBB2002B16D1564B1888564B1988FE
:101CC000564BB3F852207B7D02240094FFF7E6FECA
:101CD0000346DAB2524B1A704D4B1B780133DAB21D
:101CE0004B4B1A7048E14A4B00221A704D4B1B783F
:101CF000042B00F2408101A252F823F0111D0008CC
:101D00003F1D0008A11D00084D1E0008451F0008CA
:101D1000454B1888454B1978454B1A88454B1B781D
:101D200079240094FFF798FD0346DAB23C4B1A7011
:101D30003C4B1B780133DAB23A4B1A701CE13E4B34
:101D40001B88184602F09CFC53EC102B10461946D9
:101D5000FEF752FF0346DCB2384B1D78384B1B8828
:101D6000184602F08DFC53EC102B10461946FEF776
:101D700043FF0346DAB2334B1B7800210191002167
:101D8000009129462046FFF7ADFD0346DAB2244B09
:101D90001A70244B1B780133DAB2224B1A70EBE035
:101DA000294BB3F84C001D4BB3F84A3007EE903A7C
:101DB000F8EE677AB2EE007A67EE877AFCEEE77AA1
:101DC00017EE903A99B2154BD3ED117AFCEEE77A03
:101DD00017EE903A9AB2114BB3F84830FFF7CEFDA8
:101DE0000346DAB20E4B1A700E4B1B780133DAB28F
:101DF0000C4B1A70C0E000BF95020020E8040020E0
:101E000098020020D8070020D9070020DE07002014
:101E100094020020E2020020E4020020B809002021
:101E2000DF070020C0020020E2070020DB070020BF
:101E3000E0070020DA070020E6070020DD07002089
:101E4000E4070020DC070020280A0020584B1B680C
:101E50001846FEF7A1FB54A3D3E90023FEF7F4FBD9
:101E600002460B46104619464FF00002514BFEF752
:101E7000EBFB02460B4610461946FEF7BDFE034635
:101E80009CB24B4B5B681846FEF786FB46A3D3E932
:101E90000023FEF7D9FB02460B46104619464FF0C9
:101EA0000002444BFEF7D0FB02460B461046194693
:101EB000FEF7A2FE03469DB23D4B9B681846FEF717
:101EC0006BFB39A3D3E90023FEF7BEFB02460B46AA
:101ED000104619464FF00002364BFEF7B5FB02469E
:101EE0000B4610461946FEF787FE03469EB2304B5E
:101EF000DB681846FEF750FB2BA3D3E90023FEF75F
:101F0000A3FB02460B46104619464FF00002294B30
:101F1000FEF79AFB02460B4610461946FEF76CFE8A
:101F200003469BB2324629462046FFF7FDFD034695
:101F3000DAB2214B1A70214B1B780133DAB21F4BF6
:101F40001A7019E01E4BB3F856001D4BB3F8581029
:101F50001B4BB3F854201A4BB3F84E30DBB20024BD
:101F60000094FFF751FD0346DAB2134B1A70134B7E
:101F700000221A7000E000BF01F0E6FD114B1B8843
:101F8000002B7FF425AEBB7D002B7FF421AEFB7DC3
:101F9000002B7FF41DAE0C4B1B78012B00D017E6F5
:101FA00000BF1C37BD46F0BD768C5ED61300143FD3
:101FB000E807002000005940DF070020C002002091
:101FC000B8090020E20200209502002080B582B00E
:101FD00000AF78607B681B781B021AB27B68013304
:101FE0001B781BB213431BB29AB2924B1A80914BCF
:101FF0001B88194690480AF0DFFF7B6802331B7884
:102000001B021AB27B6803331B781BB213431BB24B
:102010009AB28A4B1A80894B1B88194688480AF065
:10202000CBFF7B6804331B781B021AB27B68053335
:102030001B781BB213431BB29AB2824B1A80814B9E
:102040001B88194680480AF0B7FF7B6806331B7867
:102050001B021AB27B6807331B781BB213431BB2F7
:102060009AB27A4B1A80794B1B88194678480AF045
:10207000A3FF7B6808331B781B021AB27B68093305
:102080001B781BB213431BB29AB2724B1A80714B6E
:102090001B88194670480AF08FFF7B680A331B784B
:1020A0001B021AB27B680B331B781BB213431BB2A3
:1020B0009AB26A4B1A80694B1B88194668480AF025
:1020C0007BFF7B680C331B781B021AB27B680D33D5
:1020D0001B781BB213431BB29AB2624B1A80614B3E
:1020E0001B88194660480AF067FF7B680E331B782F
:1020F0001B021AB27B680F331B781BB213431BB24F
:102100009AB25A4B1A80594B1B88194658480AF004
:1021100053FF7B681A7C574B1A70564B1B78194635
:1021200055480AF049FF7B685A7C544B1A70534B50
:102130001B78194652480AF03FFF7B689A7C514B46
:102140001A70504B1B7819464F480AF035FF7B68D0
:10215000DA7C4E4B1A704D4B1B7819464C480AF0EE
:102160002BFF7B681A7D4B4B1A704A4B1B78194624
:1021700049480AF021FF7B685A7D484B1A70474B4B
:102180001B78194646480AF017FF7B689A7D454B35
:102190001A70444B1B78194643480AF00DFF7B68C0
:1021A000DA7D424B1A70414B1B78194640480AF0C1
:1021B00003FF7B681A7E3F4B1A703E4B1B78194613
:1021C0003D480AF0F9FE7B685A7E3C4B1A703B4B47
:1021D0001B7819463A480AF0EFFE7B689A7E394B25
:1021E0001A70384B1B78194637480AF0E5FE7B68B1
:1021F000DA7E364B1A70354B1B78194634480AF094
:10220000DBFE7B681A7F334B1A70324B1B78194602
:1022100031480AF0D1FE7B685A7F304B1A702F4B41
:102220001B7819462E480AF0C7FE00BF0837BD4686
:1022300080BD00BFC2020020E00D0108C4020020E2
:10224000040E0108C6020020280E0108C802002062
:102250004C0E0108CA020020700E0108CC020020BA
:10226000940E0108CE020020B80E0108D002002012
:10227000DC0E0108D2020020000F0108D30200206A
:10228000180F0108D4020020300F0108D5020020E9
:10229000480F0108D6020020600F0108D702002075
:1022A000800F0108D8020020A00F0108D9020020E9
:1022B000C40F0108DA020020E80F0108DB02002049
:1022C0000C100108DC02002034100108DD0200209F
:1022D00058100108DE02002080100108DF020020F3
:1022E000A410010880B584B004AF4FF480720021BF
:1022F00039480AF0C7FF384B69221A70364B002262
:102300005A70354B68229A70334B4022DA70324B48
:1023100041221A71304B00225A712F4B47229A7179
:102320002D4B4022DA712C4BD7221A722A4B0A22EB
:102330005A72294B85229A72274B1E22DA72264B3B
:10234000D5221A73244B80225A73234B91229A73FD
:10235000214BEA22DA73204B37221A741E4B3222A9
:102360005A741D4B05229A741B4B0A22DA741A4BBD
:1023700005221A75184B0A225A75174B28229A758E
:10238000154B1E22DA75144B78221A76124B6422F2
:102390005A76114B18229A760F4B1422DA760E4B8E
:1023A0005A221A770C4B50225A774FF47A730293C1
:1023B0004FF480730193084B009302234FF4807213
:1023C000A021064805F068FF4FF47A7003F0E2F9A7
:1023D00000BFBD4680BD00BFE802002040060020CF
:1023E00080B586B004AF78607B681A78234B1A708A
:1023F0007B685A78214B5A707B689A781F4B9A7089
:102400007B68DA781D4BDA707B681A791B4B1A717E
:102410007B685A79194B5A717B689A79174B9A7174
:102420007B68DA79154BDA714FF47A7302934FF4C3
:1024300080730193114B009302234FF48072A0210B
:102440000F4805F029FF4FF47A7003F0A3F94FF419
:102450007A7302934FF4807301930A4B0093022323
:102460004FF48072A121064806F02AF80548FFF7CC
:10247000ADFD00BF0837BD4680BD00BFE8020020AB
:1024800040060020E803002080B586B004AF7860E5
:102490007B681A78234B1A727B685A78214B5A72E0
:1024A0007B689A781F4B9A727B68DA781D4BDA72D8
:1024B0007B681A791B4B1A737B685A79194B5A73CC
:1024C0007B689A79174B9A737B68DA79154BDA73C4
:1024D0004FF47A7302934FF480730193114B00937E
:1024E00002234FF48072A0210F4805F0D5FE4FF46F
:1024F0007A7003F04FF94FF47A7302934FF48073BC
:1025000001930A4B009302234FF48072A1210648E5
:1025100005F0D6FF0548FFF759FD00BF0837BD4657
:1025200080BD00BFE802002040060020E803002034
:1025300080B586B004AF78607B681A78234B1A7434
:102540007B685A78214B5A747B689A781F4B9A742F
:102550007B68DA781D4BDA747B681A791B4B1A7525
:102560007B685A79194B5A757B689A79174B9A751B
:102570007B68DA79154BDA754FF47A7302934FF46E
:1025800080730193114B009302234FF48072A021BA
:102590000F4805F081FE4FF47A7003F0FBF84FF41A
:1025A0007A7302934FF4807301930A4B00930223D2
:1025B0004FF48072A121064805F082FF0548FFF71D
:1025C00005FD00BF0837BD4680BD00BFE802002002
:1025D00040060020E803002080B586B004AF786094
:1025E0007B681A781F4B1A767B685A781D4B5A768F
:1025F0007B689A781B4B9A767B68DA78194BDA7687
:102600007B681A79174B1A777B685A79154B5A777A
:102610004FF47A7302934FF480730193114B00933C
:1026200002234FF48072A0210F4805F035FE4FF4CD
:102630007A7003F0AFF84FF47A7302934FF480731B
:1026400001930A4B009302234FF48072A1210648A4
:1026500005F036FF0548FFF7B9FC00BF0837BD4657
:1026600080BD00BFE802002040060020E8030020F3
:10267000B0B500AF3B4B1B78012B27D13A4B1B88E1
:10268000184601F0FDFF55EC104B384B1B881846DF
:1026900001F0F6FF53EC102B20462946FDF71CFEF7
:1026A00002460B4614461D46314B1B781846FDF773
:1026B00061FF02460B4620462946FEF755FA0346BF
:1026C000002B2ED02B4B1D221A702AE02A4B1B7890
:1026D000012B26D1244B1B88184601F0D1FF55EC65
:1026E000104B224B1B88184601F0CAFF53EC102BED
:1026F00020462946FDF7F0FD02460B4614461D46CE
:102700001E4B1B781846FDF735FF02460B46204648
:102710002946FEF729FA0346002B02D0154B1D224D
:102720001A70174B1B78012B02D1124B1A221A7008
:10273000134B1B78022B02D10E4B19221A70104B2F
:102740001B78032B02D10B4B06221A700C4B1B7803
:10275000042B02D1074B07221A70064B1B78184630
:10276000B0BD00BFD8070020E6070020E407002026
:10277000D6020020E0020020D9070020D702002066
:10278000DE07002080B400AF1D4BB3F84C201D4B7A
:102790001B889A4202D91C4B15221A70184BB3F8A9
:1027A0004C201A4B1B889A4202D2174B16221A70E1
:1027B000134BB3F84C20164B1B889A4202D9124B8C
:1027C00001221A700E4BB3F84C20124B1B889A4210
:1027D00002D20D4B02221A70094BB3F84C301A4644
:1027E000074BB3F84C305B009A4202DD064B0E22D9
:1027F0001A70054B1B781846BD465DF8047B704780
:10280000280A0020C4020020E0020020C8020020A4
:10281000C2020020C6020020B0B500AF304B1B88BA
:102820001A46304B1B88D31A1846FDF7A3FE2AA37D
:10283000D3E90023FDF708FF02460B4614461D4668
:10284000294B1B7807EE903AF8EE677A9FED277ACE
:10285000C7EE876A16EE900AFDF79EFE02460B460B
:1028600020462946FEF780F90346002B03D0204B73
:102870000C221A702BE01A4B1B881A46194B1B8826
:10288000D31A1846FDF776FE13A3D3E90023FDF70C
:10289000DBFE02460B4614461D46164B1B7807EE20
:1028A000903AF8EE677A9FED117AC7EE876A16EED6
:1028B000900AFDF771FE02460B4620462946FEF7B8
:1028C00053F90346002B02D0094B1C221A70084B07
:1028D0001B781846B0BD00BF768C5ED61300143F3F
:1028E000E2070020E0070020D80200200000C842D4
:1028F000E0020020D902002080B582B000AF03239F
:102900007B6036E07B68DBB2184601F08BF903464A
:102910007B801C4B1A881C4B1B889A4208D2194B8F
:102920001B8849F69912934202D9184B18221A7043
:10293000174B1A88174B1B889A4208D9144B1B88CF
:102940004DF62642934202D8104B17221A707B880C
:1029500003F48043002B02D00C4B04221A70B7F909
:102960000230002B02DA094B05221A707B68013B0A
:102970007B607B68002BC5DA044B1B781846083750
:10298000BD4680BDE0070020D0020020E00200200C
:10299000E2070020CE02002080B500AF184B0022D5
:1029A0001A70FFF7EFFE0346002B04D000F02AF860
:1029B00003461A461EE0FFF79FFF0346002B04D094
:1029C00000F020F803461A4614E0FFF725FF0346FF
:1029D000002B04D000F016F803461A460AE0FFF771
:1029E00047FE0346002B04D000F00CF803461A46BD
:1029F00000E00022024B1A70014B1B78184680BD84
:102A0000E002002080B500AF224B1B78152B2BD0A5
:102A1000204B1B78162B27D01E4B1B78172B23D04F
:102A20001C4B1B78182B1FD01A4B1B78192B1BD053
:102A3000184B1B781A2B17D0164B1B781B2B13D057
:102A4000144B1B781C2B0FD0124B1B781D2B0BD05B
:102A5000104B1B781E2B07D00E4B1B781F2B03D05F
:102A60000C4B1B78202B06D10A4B1B7819460A48C1
:102A70000AF0A2FA05E0074B1B78194607480AF04E
:102A80009BFA074B00221A7001F05EF8014B1B788D
:102A9000184680BDE0020020C8100108DC100108C3
:102AA000DE07002080B500AF814B00221A70814BF9
:102AB00000221A80804B00221A80804B1B78002B4A
:102AC00008D17C4B1B886FEA43436FEA53439AB2A9
:102AD000784B1A80FFF7CCFD03461A46744B1A70E8
:102AE000734B1B78002B31D0714B1B78062B03D016
:102AF0006F4B1B78072B0ED16D4B1B781A460123A9
:102B000093401AB26B4B1B881BB213431BB29AB291
:102B1000684B1A801AE0664B1B78192B07D0644B60
:102B20001B781A2B03D0624B1B781D2B0ED1604BE8
:102B30001B78143B012202FA03F31AB25E4B1B8886
:102B40001BB213431BB29AB25B4B1A80FFF71AFEFB
:102B500003461A46564B1A70554B1B78002B31D042
:102B6000534B1B78152B03D0514B1B78162B0FD1D1
:102B70004F4B1B78143B012202FA03F31AB24E4B5F
:102B80001B881BB213431BB29AB24B4B1A8019E03D
:102B9000474B1B78012B07D0454B1B78022B03D0EA
:102BA000434B1B780E2B0DD1414B1B781A4601234A
:102BB00093401AB23F4B1B881BB213431BB29AB20D
:102BC0003C4B1A80FFF728FE03461A46384B1A7012
:102BD000374B1B78002B25D0354B1B780C2B0ED197
:102BE000334B1B781A46012393401AB2314B1B8892
:102BF0001BB213431BB29AB22E4B1A8012E02C4B1D
:102C00001B781C2B0ED12A4B1B78143B012202FA95
:102C100003F31AB2284B1B881BB213431BB29AB2A0
:102C2000254B1A80FFF768FE03461A46204B1A70A0
:102C30001F4B1B78002B2DD01D4B1B78182B03D05E
:102C40001B4B1B78172B0FD1194B1B78143B012200
:102C500002FA03F31AB2184B1B881BB213431BB2C0
:102C60009AB2154B1A8015E0114B1B78042B03D038
:102C70000F4B1B78052B0DD10D4B1B781A460123EA
:102C800093401AB20B4B1B881BB213431BB29AB270
:102C9000084B1A80084B1B88194609480AF08CF922
:102CA000044B1B88194607480AF086F900BF80BD0F
:102CB000E0020020E2020020E40200209502002051
:102CC000F01001080411010880B500AF204B214A23
:102CD0001A601F4B00225A601D4B4FF480729A609D
:102CE0001B4B0022DA601A4B01221A74184B002287
:102CF0005A74174B00229A74154B04225A61144BD4
:102D00000B229A61124B4922DA61114B0B221A6293
:102D10000F4B0A225A620E4B09229A620C4B182260
:102D2000DA620B4B09221A63094B01225A63084BE2
:102D300000229A63064B0022DA63054804F03AF950
:102D40000346002B01D001F0D6F900BF80BD00BFC3
:102D5000E80400200064004080B59EB000AF7860B9
:102D600007F1640300221A605A609A60DA601A61FF
:102D700007F110035422002118460AF083FA7B68F9
:102D80001B68244A934241D14FF480533B614FF07A
:102D90000073BB6407F11003184606F031FE0346CA
:102DA000002B01D001F0A7F91B4B9B6D1A4A43F091
:102DB00000739365184B9B6D03F00073FB60FB6819
:102DC000154BDB6C144A43F00103D364124BDB6CEC
:102DD00003F00103BB60BB684FF4C0537B66022362
:102DE000BB660023FB6600233B6709237B6707F173
:102DF000640319464FF0904004F016FF00220021B2
:102E0000152003F0E2FF152003F0F9FF00BF78372B
:102E1000BD4680BD006400400010024080B584B013
:102E200002AF01224FF400410F4805F07FF87223F2
:102E30003B7136237B713A1D0A2300930223AA219A
:102E40000A4805F035F9FF233B71FF237B713A1DDA
:102E50000A2300930223AA21044805F029F900BFA0
:102E60000837BD4680BD00BF00040048F4050020BF
:102E700080B58CB000AF07F11C0300221A605A60C5
:102E80009A60DA601A61604BDB6C5F4A43F00403BE
:102E9000D3645D4BDB6C03F00403BB61BB695A4B2D
:102EA000DB6C594A43F02003D364574BDB6C03F0CF
:102EB00020037B617B69544BDB6C534A43F0400336
:102EC000D364514BDB6C03F040033B613B694E4BD9
:102ED000DB6C4D4A43F00103D3644B4BDB6C03F0D6
:102EE0000103FB60FB68484BDB6C474A43F002037D
:102EF000D364454BDB6C03F00203BB60BB68424B01
:102F0000DB6C414A43F00803D3643F4BDB6C03F0B6
:102F100008037B607B6800224FF480613B4805F02A
:102F200005F8002204213A4805F000F801220321A7
:102F30004FF0904004F0FAFF00221C214FF0904027
:102F400004F0F4FF002248F22101324804F0EEFFC1
:102F50004FF48063FB6101233B6200237B6200230B
:102F6000BB6207F11C031946284804F05DFE0423E8
:102F7000FB6101233B6200237B620023BB6207F1FC
:102F80001C031946224804F04FFE0323FB61012372
:102F90003B6201237B620023BB6207F11C031946DD
:102FA0004FF0904004F040FE1C23FB6101233B6284
:102FB00000237B620023BB6207F11C0319464FF01C
:102FC000904004F031FE48F22103FB6101233B6293
:102FD00000237B620023BB6207F11C0319460D48E6
:102FE00004F022FE4FF40063FB6103233B620023E5
:102FF0007B6207F11C031946064804F015FE00BF6A
:103000003037BD4680BD00BF0010024000180048A8
:10301000000800480004004880B500AF00220121EC
:10302000054804F083FF052002F0B4FB01210248AB
:1030300004F094FF00BF80BD0004004880B485B058
:1030400000AF786039600023FB810023BB6016E08D
:103050007B685A1C7A601B781AB2B7F90E3053405D
:103060001BB2FB81FB89DBB20A4A32F81320FB89D1
:103070001B0A9BB25340FB81BB680133BB60BA683B
:103080003B689A42E4DBFB8918461437BD465DF87D
:10309000047B70476013010880B582B000AF104B0D
:1030A00001221A700F4B01221A700E4B1B785B0025
:1030B0005AB20B4B1B785BB213435BB2FB7100221D
:1030C00001214FF0904004F031FF002202214FF027
:1030D000904004F02BFFFB7918460837BD4680BDB1
:1030E000ED050020EE05002080B58EB000AF3A60FF
:1030F0001A460346FB710B46BB801346BB71002387
:103100003B6307F10C037B63BB79072B02D0BB79D0
:10311000082B01D9002395E007F10C0320227F2121
:1031200018460AF0AFF8BB88FF2B2FD997F840203C
:10313000BB791343DAB27B6B591C796362F0770277
:10314000D2B21A7097F84030002B0BD097F840306D
:10315000102B07D097F84030202B03D097F8403041
:10316000302B04D17B6B5A1C7A63FA791A70BB88B6
:103170001B0A99B27B6B5A1C7A63CAB21A707B6BBA
:103180005A1C7A63BA88D2B21A702FE097F840209E
:10319000BB791343DAB27B6B591C796362F07F020F
:1031A000D2B21A7097F84030002B0BD097F840300D
:1031B000102B07D097F84030202B03D097F84030E1
:1031C000302B04D17B6B5A1C7A63FA791A707B6BB3
:1031D0005A1C7A63BA88D2B21A7007E03A68531C54
:1031E0003B607B6B591C796312781A70BB795A1E4D
:1031F000BA71002BF2D107F10C037A6BD31A3B633F
:1032000007F10C03396B1846FFF718FF0346FB85DF
:103210007B6B5A1C7A63FA8DD2B21A70FB8D1B0A33
:1032200099B27B6B5A1C7A63CAB21A703B6B023339
:103230003B633B6B9AB207F10C010523034807F08F
:1032400067FC3B6B18463837BD4680BD500B0020ED
:1032500080B58AB002AFC7E900230346FB730B4673
:10326000BB810023FB61B94A07F1140392E8030014
:1032700083E8030097F82830013B072B00F2C28156
:1032800001A252F823F000BFA9320008C53200089D
:10329000F932000845330008A9330008213400083A
:1032A000AD340008513500083B783B7507F1140236
:1032B000B989F87B97F82C3000930123FFF714FFAE
:1032C000F861A0E1D7E900014FF000024FF00003E0
:1032D000020A42EA01620B0AD3B23B753B787B7566
:1032E00007F11402B989F87B97F82C300093022378
:1032F000FFF7FAFEF86186E1D7E900014FF000021E
:103300004FF00003020C42EA01420B0CD3B23B75B2
:10331000D7E900014FF000024FF00003020A42EA31
:1033200001620B0AD3B27B753B78BB7507F11402BF
:10333000B989F87B97F82C3000930323FFF7D4FE6C
:10334000F86160E1D7E900014FF000024FF000039F
:10335000020E42EA01220B0ED3B23B75D7E90001FF
:103360004FF000024FF00003020C42EA01420B0C46
:10337000D3B27B75D7E900014FF000024FF0000394
:10338000020A42EA01620B0AD3B2BB753B78FB75B5
:1033900007F11402B989F87B97F82C3000930423C5
:1033A000FFF7A2FEF8612EE1D7E900014FF000021D
:1033B0004FF000030A000023D3B23B75D7E90001A8
:1033C0004FF000024FF00003020E42EA01220B0E02
:1033D000D3B27B75D7E900014FF000024FF0000334
:1033E000020C42EA01420B0CD3B2BB75D7E90001D3
:1033F0004FF000024FF00003020A42EA01620B0A9A
:10340000D3B2FB753B783B7607F11402B989F87BA0
:1034100097F82C3000930523FFF766FEF861F2E081
:10342000D7E900014FF000024FF000030A0A002321
:10343000D3B23B75D7E900014FF000024FF0000313
:103440000A000023D3B27B75D7E900014FF00002D8
:103450004FF00003020E42EA01220B0ED3B2BB75FD
:10346000D7E900014FF000024FF00003020C42EADE
:1034700001420B0CD3B2FB75D7E900014FF00002FB
:103480004FF00003020A42EA01620B0AD3B23B7614
:103490003B787B7607F11402B989F87B97F82C30DA
:1034A00000930623FFF720FEF861ACE0D7E90001A6
:1034B0004FF000024FF000030A0C0023D3B23B751B
:1034C000D7E900014FF000024FF000030A0A002381
:1034D000D3B27B75D7E900014FF000024FF0000333
:1034E0000A000023D3B2BB75D7E900014FF00002F8
:1034F0004FF00003020E42EA01220B0ED3B2FB751D
:10350000D7E900014FF000024FF00003020C42EA3D
:1035100001420B0CD3B23B76D7E900014FF0000219
:103520004FF00003020A42EA01620B0AD3B27B7633
:103530003B78BB7607F11402B989F87B97F82C30F9
:1035400000930723FFF7D0FDF8615CE01811010834
:10355000D7E900014FF000024FF000030A0E0023EC
:10356000D3B23B75D7E900014FF000024FF00003E2
:103570000A0C0023D3B27B75D7E900014FF000029B
:103580004FF000030A0A0023D3B2BB75D7E900014C
:103590004FF000024FF000030A000023D3B2FB7586
:1035A000D7E900014FF000024FF00003020E42EA9B
:1035B00001220B0ED3B23B76D7E900014FF0000297
:1035C0004FF00003020C42EA01420B0CD3B27B76AF
:1035D000D7E900014FF000024FF00003020A42EA6F
:1035E00001620B0AD3B2BB763B78FB7607F114027B
:1035F000B989F87B97F82C3000930823FFF774FD06
:10360000F86100E000BFFB6918462037BD4680BD69
:1036100080B586B002AF0346FB710B46BB801346F4
:10362000BB71BB79013BDBB2FB73FB7B5BB2002B55
:1036300001DA002309E007F10F02B988F8790023C5
:1036400000930123FFF750FD034618461037BD468F
:1036500080BD000080B586B000AFF8600B467A6090
:10366000FB720023FB821F4AFB7A13703C2200216D
:103670001D4809F007FE1B4B1B789AB20A231A4912
:103680001A4807F0DBFA184B1B787B757B7D0233F9
:10369000154AD35CFB827B7D0333134AD35C1B0248
:1036A0001AB2B7F9163013431BB2FB827B7D02338B
:1036B00019460D48FFF7C2FC03467B82FA8A7B8AD3
:1036C0009A4202D04FF0FF3308E07B7D04331A4664
:1036D0000549F86809F055FE7B7D01331846183717
:1036E000BD4680BD4C05002050050020500B002039
:1036F00080B586B000AF3A601A460346FB710B46B0
:10370000BB801346BB7100237B6107F10C030822C9
:103710000021184609F0B6FDBB79013B032B00F2EE
:10372000858001A252F823F0393700086B37000872
:10373000AB370008E9370008B988FB790122184641
:10374000FFF766FF786107F10C033A6A0421184617
:10375000FFF780FF78617B69012B03D17A7B3B689F
:103760001A7064E000237B6161E0B988FB79022272
:103770001846FFF74DFF786107F10C033A6A0521FF
:103780001846FFF767FF78617B69022B0AD17B7BC4
:103790001B021AB2BB7B1BB213431BB29AB23B682B
:1037A0001A8044E000237B6141E0B988FB79032261
:1037B0001846FFF72DFF786107F10C033A6A0621DE
:1037C0001846FFF747FF78617B69032B09D17B7BA4
:1037D0001B04BA7B12021343FA7B1A433B681A603C
:1037E00025E000237B6122E0B988FB79042218469A
:1037F000FFF70EFF786107F10C033A6A07211846BC
:10380000FFF728FF78617B69042B0CD17B7B1A06BC
:10381000BB7B1B041343FA7B120213433A7C1A430B
:103820003B681A6003E000237B6100E000BF7B6916
:1038300018461837BD4680BD2DE9B04F82B002AFA3
:10384000BB4B00221A601BE07023019301230093FD
:103850004FF040024FF000030C210020FFF7F8FC6E
:103860000346B44A1360052001F094FFFFF7D4FB30
:10387000052001F08FFFAE4B1B680133AC4A13608B
:10388000AB4B1B68032BDFDD7023019302230093F6
:103890004FF400424FF000036B210020FFF7D8FCEB
:1038A0000346A44A136070230193022300934FF64A
:1038B000C0724FF0000352210020FFF7C9FC0346FD
:1038C0009C4A136070230193012300934FF0380248
:1038D0004FF0000351210020FFF7BAFC0346954A40
:1038E000136070230193012300934FF019024FF0EE
:1038F00000030E210020FFF7ABFC03468D4A136046
:1039000070230193012300934FF008024FF000034E
:103910000C210020FFF79CFC0346864A1360844B71
:1039200000221A6018E0824B1B68D8B2804B1B68DB
:10393000DA179A4693467023019301230093524667
:103940005B460A21FFF784FC03467A4A1360784BF2
:103950001B680133764A1360754B1B68032BE2DD4D
:10396000702301930223009341F2F8024FF0000309
:1039700010210020FFF76CFC03466E4A1360702391
:103980000193022300934FF6C0724FF000035221BF
:103990000020FFF75DFC0346664A13607023019325
:1039A000012300934FF038024FF000035121002013
:1039B000FFF74EFC03465F4A136070230193012317
:1039C00000934FF000024FF000033C210020FFF76E
:1039D0003FFC0346574A1360702301930123009371
:1039E0004FF000024FF000033D210020FFF730FCB4
:1039F0000346504A136070230193012300934FF054
:103A0000CC024FF000033E210020FFF721FC0346CB
:103A1000484A136070230193012300934FF0FD0285
:103A20004FF0000307210020FFF712FC0346414A34
:103A3000136070230193012300934FF038024FF07D
:103A4000000351210020FFF703FC0346394A1360AD
:103A500070230193022300934FF6C0724FF00003CE
:103A600052210020FFF7F4FB0346324A1360002383
:103A700000930123304A51210020FFF739FE03460D
:103A80002E4A13600023009302232B4A5221002068
:103A9000FFF72EFE0346294A13607023019301238A
:103AA00000934FF010024FF000030D210020FFF7AC
:103AB000CFFB03461F4A1360702301930423009336
:103AC0006FF03F024FF0000303210020FFF7C0FB1F
:103AD0000346184A13601A4B1B889BB20022984673
:103AE0009146702301930223009342464B46902156
:103AF0000020FFF7ADFB03460E4A1360114B1B88F5
:103B00009BB200221C4615467023019302230093AA
:103B100022462B468E210020FFF79AFB0346054ADA
:103B20001360FFF77BF900BFBD46BDE8B08F00BF53
:103B3000980500208C050020F0050020900500204D
:103B4000CA020020CC02002080B582B002AF7023F0
:103B50000193022300934FF400424FF000036B21C6
:103B60000020FFF775FB70230193022300934FF6AB
:103B7000C0724FF0000352210020FFF769FB702351
:103B80000193012300934FF038024FF000035121BD
:103B90000020FFF75DFB00BFBD4680BD80B584B04F
:103BA00002AF03463960FB711A4B00221A70502293
:103BB0000021194809F066FBF879002301930123DD
:103BC00000934FF020024FF000030221FFF740FB6B
:103BD0000346124A1360124B1B78002219460E4806
:103BE000FFF738FD03460D4A13600C4B1B68DAB231
:103BF000084B1A703B68084A1846114650231A466B
:103C000009F0BFFB054B1B68DBB218460837BD4601
:103C100080BD00BFEC0500209C0500208C05002025
:103C20000000002080B586B002AF0346FB7107F1AB
:103C30000C0302220021184609F024FB07F10C02B4
:103C4000F8793223009302235221FFF751FD7B7B49
:103C50001B021AB23B7B1BB213431BB29BB218462A
:103C60001037BD4680BD000080B500AF1B4B1C4A1D
:103C70001A601A4B1B4A5A60184B00229A60174B65
:103C80000122DA60154B00221A61144B00225A619E
:103C9000124B00229A61114B0022DA610F4B002275
:103CA0001A620E4804F074F90346002B01D000F0AC
:103CB00022FA0021094804F0C3FF0346002B01D07B
:103CC00000F019FA0021054805F005F80346002B1D
:103CD00001D000F010FA00BF80BD00BFF405002045
:103CE00000580040FBA7A03080B500AF1B4B1C4A1A
:103CF0001A601A4B1B4A5A60184B00229A60174BE5
:103D00000122DA60154B00221A61144B00225A611D
:103D1000124B00229A61114B0022DA610F4B0022F4
:103D20001A620E4804F034F90346002B01D000F06B
:103D3000E2F90021094804F083FF0346002B01D07B
:103D400000F0D9F90021054804F0C5FF0346002B17
:103D500001D000F0D0F900BF80BD00BF40060020B8
:103D600000780040FBA7A03080B500AF1B4B1C4A79
:103D70001A601A4B1B4A5A60184B00229A60174B64
:103D80000122DA60154B00221A61144B00225A619D
:103D9000124B00229A61114B0022DA610F4B002274
:103DA0001A620E4804F0F4F80346002B01D000F02C
:103DB000A2F90021094804F043FF0346002B01D07B
:103DC00000F099F90021054804F085FF0346002B17
:103DD00001D000F090F900BF80BD00BF8C0600202C
:103DE00000840040FBA7A03080B5A2B000AF78608F
:103DF00007F1740300221A605A609A60DA601A614F
:103E000007F1200354220021184609F03BFA7B6891
:103E10001B68604A93423AD180233B6200233B6493
:103E200007F12003184605F0EBFD0346002B01D0F7
:103E300000F061F9584BDB6C574A43F00103D3643F
:103E4000554BDB6C03F00103FB61FB694FF44073DE
:103E50007B671223BB670023FB670023C7F8803012
:103E60000423C7F8843007F1740319464FF09040DB
:103E700003F0DAFE484B9B6D474A43F48003936599
:103E8000454B9B6D03F48003BB61BB697DE07B68A0
:103E90001B68424A93423AD14FF480733B6200233D
:103EA0007B6407F12003184605F0AAFD0346002BAA
:103EB00001D000F020F9384BDB6C374A43F00403A3
:103EC000D364354BDB6C03F004037B617B694FF4F7
:103ED00040737B671223BB670023FB670023C7F88F
:103EE00080300823C7F8843007F1740319462C4842
:103EF00003F09AFE284B9B6D274A43F0804393655D
:103F0000254B9B6D03F080433B613B693DE07B6843
:103F10001B68244A934238D14FF400333B6200239C
:103F2000BB6407F12003184605F06AFD0346002B29
:103F300001D000F0E0F8184BDB6C174A43F00403A3
:103F4000D364154BDB6C03F00403FB60FB68C023F8
:103F50007B671223BB670023FB670023C7F8803011
:103F60000823C7F8843007F1740319460C4803F09E
:103F70005BFE094BDB6D084A43F00203D365064B39
:103F8000DB6D03F00203BB60BB6800BF8837BD4632
:103F900080BD00BF00580040001002400078004083
:103FA000000800480084004080B582B000AF78600F
:103FB000391D4FF0FF330122034806F0A9FD7B684D
:103FC00018460837BD4680BDE00B002080B584B0A0
:103FD00004AF01F06EFB00F043F8FEF749FFFEF777
:103FE00073FE01F0DDF901F029FAFFF7BDFE00F0E4
:103FF00069FF01F039F9FFF737FEFFF775FEFDF7AE
:104000001FF87F21124802F09BFCFEF76BF94FF47A
:104010007A7302934FF4807301930E4B0093022343
:104020004FF48072A1210C4804F04AFA0948FDF7C8
:10403000CDFF00F0EDF8FDF7D9FB00F0D9FB012230
:104040004FF40041054803F071FF00F0E9FBF6E78B
:10405000F4010020D806002040060020000400489B
:1040600080B594B000AF07F118033822002118463C
:1040700009F008F93B1D00221A605A609A60DA6064
:104080001A61002004F07AFE0223BB614FF48073B2
:104090007B624023BB6202237B630223BB63042356
:1040A000FB6355233B6402237B640223BB6402232E
:1040B000FB6407F11803184604F06EFF0346002B5B
:1040C00001D000F018F80F237B600323BB600023AE
:1040D000FB6000233B6100237B613B1D04211846EC
:1040E00005F072FA0346002B01D000F004F800BF7F
:1040F0005037BD4680BD80B400AF72B600BFFEE74A
:1041000080B584B002AF3E4B03221A606FE03C4B97
:104110001B68D8B2FA1D0023009301230A21FFF780
:10412000E7FA0346374A1360364B1B68002B03D16E
:10413000354B00221A6055E0334B1B68002B2AD107
:104140002F4B1B68002B11D12D4B1B68D8B21023AD
:104150000193022300934FF484524FF00003102187
:10416000FFF776F80346294A13603BE0244B1B68AF
:10417000D8B2102301930223009341F228024FF09A
:1041800000031021FFF764F80346204A13601E4B1A
:1041900001221A6026E01A4B1B68002B11D1184B24
:1041A0001B68D8B2102301930223009341F2D0027E
:1041B0004FF000031021FFF74BF80346134A13603A
:1041C00010E00F4B1B68D8B2102301930223009319
:1041D00041F278024FF000031021FFF739F803464F
:1041E0000A4A1360064B1B68013B054A1360044BE7
:1041F0001B68002B8BDA00BF00BF0837BD4680BDAF
:104200009805002090050020940500208C050020D2
:1042100080B500AF054808F035FFFEF7FDFEFFF75B
:104220006FFFFFF709FB00BF80BD00BF2011010831
:1042300080B487B000AF78600B46FB7000233B6111
:104240000123BB750123FB7555E0FB7D7A681344A0
:104250001B781B021AB2FB7D013379680B441B7873
:104260001BB213431BB2FB81FA78BB7DC3F1100173
:1042700028481346DB009B1ADB000B44FA8920F820
:104280001320FB893A6913443B61FB78002B08D16A
:10429000FB7D012B05D1204AFB8913801F4AFB8936
:1042A00013801D4B1B88FA899A420CD21A4AFB894B
:1042B0001380FB781B01DAB2BB7DD31ADBB211335A
:1042C000DAB2174B1A70154B1B88FA899A420CD92F
:1042D000124AFB891380FB781B01DAB2BB7DD31A2B
:1042E000DBB21133DAB20F4B1A70BB7D0133BB75F1
:1042F000FB7D0233FB75FB7D1F2BA6D93B6907EEC7
:10430000903AF8EEE77AB0EE670A1C37BD465DF8E2
:10431000047B7047F8070020E0070020E207002038
:10432000DA070020DB07002080B584B000AF78609A
:104330000B46FB700123BB732123FB73C2E0FB7BA5
:104340007A6813441B781B021AB2FB7B013379682D
:104350000B441B781BB213431BB2BB81FA78BB7BA7
:10436000C3F108015C481346DB009B1ADB000B44D9
:104370001033BA8920F81320BB89184600F080F961
:1043800053EC102B10461946FCF756FC0346BB6055
:10439000524B1B7807EE903AF8EEE77A97ED027AE7
:1043A000B4EEE77AF1EE10FA0BDDD7ED027A9FED6D
:1043B0004C7AF4EEC77AF1EE10FA02D5494B01229D
:1043C0001A70494B1B7807EE903AF8EEE77A97EDB2
:1043D000027AB4EEE77AF1EE10FA0BD5D7ED027A55
:1043E0009FED427AF4EEC77AF1EE10FA02DD3D4B12
:1043F00002221A703E4B1B7807EE903AF8EEE77AED
:1044000097ED027AB4EEE77AF1EE10FA0BDDD7ED14
:10441000027A9FED337AF4EEC77AF1EE10FA02D504
:10442000304B03221A70334B1B7807EE903AF8EEAC
:10443000E77A97ED027AB4EEE77AF1EE10FA0BD54F
:10444000D7ED027A9FED297AF4EEC77AF1EE10FAF1
:1044500002DD244B04221A70FB78002B08D1FB7B71
:10446000212B05D1244ABB891380244ABB891380A0
:10447000224B1B88BA899A420CD2204ABB891380EE
:10448000FB78DB00DAB2BB7BD31ADBB20933DAB2DA
:104490001B4B1A70184B1B88BA899A420CD9164AC2
:1044A000BB891380FB78DB00DAB2BB7BD31ADBB2AB
:1044B0000933DAB2134B1A70BB7B0133BB73FB7B3E
:1044C0000233FB73FB7B2F2B7FF639AF00BF00BF9E
:1044D0001037BD4680BD00BFF8070020D302002082
:1044E00000009643DE070020D50200200000FAC23B
:1044F000D2020020D4020020E4070020E6070020BA
:10450000DD070020DC07002080B485B000AF7860B4
:104510000B46FB700123BB733123FB7322E0FB7B53
:104520007A6813441B781B021AB2FB7B013379684B
:104530000B441B781BB213431BB2BB81FA78BB7BC5
:10454000C3F102010C481346DB009B1ADB000B444D
:104550002033BA8920F81320BB7B0133BB73FB7B6C
:104560000233FB73FB7B332BD9D900BF00BF143759
:10457000BD465DF8047B7047F8070020000000008E
:1045800080B598B000AF4FF000037B654FF000039B
:10459000FB650023BB6534E0BB6DDBB23A1D114601
:1045A0001846FFF7FBFABB6DDAB23B1D1146184601
:1045B000FFF73EFE87ED150A2D4ABB6D9B001344A5
:1045C0007A6D1A6097ED177AD7ED157A77EE277A1C
:1045D000C7ED177ABB6DDAB23B1D11461846FFF7DF
:1045E000A3FEBB6DDAB23B1D11461846FFF78CFFE8
:1045F000BB6DDBB20021184600F0CEF8BB6D013375
:10460000BB65BB6D032BC7DDF86DFBF7C5FF16A3BC
:10461000D3E90023FCF718F802460B46104619466A
:104620004FF00002134BFCF70FF802460B46104602
:104630001946FCF7E1FA03469AB20F4BA3F84C2057
:10464000F86DFBF7A9FF08A3D3E90023FBF7FCFFF4
:1046500002460B46094808F0AFFC00BF6037BD4674
:1046600080BD00BFAFF30080768C5ED61300143F90
:10467000E807002000005940280A002038110108EE
:1046800080B588B000AF0346FB80FB8807EE903A08
:10469000F8EE677AB1EE047A27EE877ADFED3C6AAE
:1046A000C7EE267AC7ED077AD7ED077A9FED397AFC
:1046B00067EE876AB1EE047AD7ED077A37EE677A4C
:1046C000C6EE877AC7ED067AD7ED067A9FED317A86
:1046D000C7EE876A16EE900AFBF75EFF02460B46AE
:1046E00043EC102B0CF074F951EC100B22A3D3E91E
:1046F0000023FCF7D3F802460B4610461946FCF798
:104700009BFA03467B617869FBF746FF1CA3D3E95C
:104710000023FBF7E3FD02460B4610461946FCF763
:104720008BFA03467B61F7EE006A97ED057AC6EED9
:10473000877AC7ED047A3869FBF72EFF12A3D3E915
:104740000023FBF7C9FD02460B4610461946FCF74D
:1047500073FA0346FB60F868FBF71EFF02460B4640
:1047600043EC172BB0EE470AF0EE670A2037BD4640
:1047700080BD00BFAFF30080000000000090AA40A1
:1047800083DBB5DCE1796B3F666666666612714075
:1047900000FF7F4700401C46B0B584B002AF03461F
:1047A0000A46FB711346BB80104B00221A70F87941
:1047B00010230193012300934FF098024FF0000360
:1047C0001321FEF745FDBB8800221C461546F879EB
:1047D000102301930223009322462B461421FEF757
:1047E00037FD00BF0837BD46B0BD00BFD807002069
:1047F00080B582B000AF00237B6008E07B68DBB24D
:1048000000211846FFF7C8FF7B6801337B607B6897
:10481000032BF3DD00BF00BF0837BD4680BD00009D
:10482000F0B585B002AFB24808F02CFC70230193BC
:10483000012300934FF000024FF0000302210020FB
:10484000FEF706FD322000F0A5FF0023FB71A94B07
:1048500000221A70A84B01221A70FFF791FEFEF792
:104860009BF80346FB71FB79002B40F06581FEF756
:1048700013FC0346BB70A14B1B7803F00103DBB2B2
:10488000002B14D19E4BB3F85220BB78012100912C
:1048900000210020FDF702F90346DAB2994B1A70A5
:1048A000964B1B780133DAB2944B1A70E4E2934BC7
:1048B00000221A70944B1B78042B00F2DA8201A2BA
:1048C00052F823F0D9480008074900086949000850
:1048D000BF490008B74A00088C4B18888C4B1978E0
:1048E0008C4B1A888C4B1B7879240094FCF7B4FF0E
:1048F0000346DAB2834B1A70834B1B780133DAB26A
:10490000814B1A70B8E2854B1B881846FFF7B8FE3A
:1049100053EC102B10461946FCF76EF90346DCB237
:104920007F4B1D787F4B1B881846FFF7A9FE53EC81
:10493000102B10461946FCF75FF90346DAB27A4BA2
:104940001B78002101910021009129462046FCF7A7
:10495000C9FF0346DAB26B4B1A706B4B1B780133FD
:10496000DAB2694B1A7087E2704BB3F84C00644BB3
:10497000B3F84A3007EE903AF8EE677AB2EE007A72
:1049800067EE877AFCEEE77A17EE903A99B25C4BC5
:10499000D3ED117AFCEEE77A17EE903A9AB2584BC3
:1049A000B3F84830FCF7EAFF0346DAB2554B1A7009
:1049B000554B1B780133DAB2534B1A705CE25C4BF7
:1049C0001B681846FBF7E8FD47A3D3E90023FBF774
:1049D0003BFE02460B46104619464FF00002554B6F
:1049E000FBF732FE02460B4610461946FCF704F967
:1049F00003469CB24E4B5B681846FBF7CDFD3AA3CD
:104A0000D3E90023FBF720FE02460B461046194669
:104A10004FF00002474BFBF717FE02460B461046CD
:104A20001946FCF7E9F803469DB2414B9B681846CE
:104A3000FBF7B2FD2CA3D3E90023FBF705FE0246EA
:104A40000B46104619464FF000023A4BFBF7FCFDAF
:104A500002460B4610461946FCF7CEF803469EB2B6
:104A6000334BDB681846FBF797FD1FA3D3E9002300
:104A7000FBF7EAFD02460B46104619464FF00002CE
:104A80002C4BFBF7E1FD02460B4610461946FCF79E
:104A9000B3F803469BB2324629462046FDF744F858
:104AA0000346DAB2174B1A70174B1B780133DAB290
:104AB000154B1A70E0E1124BB3F85600104BB3F8E7
:104AC00058100F4BB3F854200D4BB3F84E30DBB2F7
:104AD00000240094FCF798FF0346DAB2094B1A70E1
:104AE000094B00221A70C7E1768C5ED61300143F82
:104AF00044130108D8070020D9070020980A002095
:104B0000B8090020DF070020990A0020E2070020F2
:104B1000DB070020E0070020DA070020E60700207E
:104B2000DD070020E4070020DC070020280A002021
:104B3000E807002000005940FB79032B14D0FB79D3
:104B4000062B11D0FB79072B0ED0FB790A2B0BD04B
:104B5000FB790B2B08D0FB790C2B05D0FB790D2BA7
:104B600002D0FB790E2B08D1FEF796FA0346FB70B4
:104B7000FB781846FDF720F87EE1FB79012B05D084
:104B8000FB79042B02D0FB79082B08D1FEF784FABD
:104B900003463B713B791846FDF70EF86CE1FB7953
:104BA000022B05D0FB79052B02D0FB79092B08D10C
:104BB000FEF772FA03467B717B791846FCF7FCFF1F
:104BC0005AE1FB79152B21D0FB79162B1ED0FB79EE
:104BD000172B1BD0FB79182B18D0FB79192B15D06C
:104BE000FB791A2B12D0FB791B2B0FD0FB791C2BD6
:104BF0000CD0FB791D2B09D0FB791E2B06D0FB793D
:104C00001F2B03D0FB79202B40F03681FEF744FAAE
:104C10000346BB719C4B1B7803F00103DBB2002BF6
:104C200015D1FB7999B2994BB3F85220BB79012089
:104C300000900020FCF732FF0346DAB2944B1A7062
:104C4000914B1B780133DAB28F4B1A7014E18E4B03
:104C500000221A708F4B1B78042B00F20C8101A2EA
:104C600052F823F0794C0008A74C0008094D0008C1
:104C7000494D0008414E0008874B1888874B19782A
:104C8000874B1A88874B1B7878240094FCF7E4FD47
:104C90000346DAB27E4B1A707E4B1B780133DAB2D0
:104CA0007C4B1A70E8E0804B1B881846FFF7E8FC45
:104CB00053EC102B10461946FBF79EFF0346DCB25F
:104CC0007A4B1D787A4B1B881846FFF7D9FC53ECBA
:104CD000102B10461946FBF78FFF0346DAB2754BCF
:104CE0001B78002101910021009129462046FCF704
:104CF000F9FD0346DAB2664B1A70664B1B78013336
:104D0000DAB2644B1A70B7E06B4BB3F84C005F4BF0
:104D1000B3F84A30DB0099B25C4BD3ED117AFCEE6C
:104D2000E77A17EE903A9AB2584BB3F84830FCF74E
:104D300025FE0346DAB2564B1A70564B1B780133E8
:104D4000DAB2544B1A7097E05C4B1B681846FBF7BD
:104D500023FC4BA3D3E90023FBF776FC02460B466A
:104D6000104619464FF00002554BFBF76DFC02460A
:104D70000B4610461946FBF73FFF03469CB24F4BCC
:104D80005B681846FBF708FC3DA3D3E90023FBF75B
:104D90005BFC02460B46104619464FF00002484B9A
:104DA000FBF752FC02460B4610461946FBF724FF60
:104DB00003469DB2414B9B681846FBF7EDFB30A3C1
:104DC000D3E90023FBF740FC02460B461046194688
:104DD0004FF000023A4BFBF737FC02460B461046F9
:104DE0001946FBF709FF03469EB2344BDB681846B1
:104DF000FBF7D2FB22A3D3E90023FBF725FC0246F5
:104E00000B46104619464FF000022D4BFBF71CFCD9
:104E100002460B4610461946FBF7EEFE03469BB2D0
:104E2000324629462046FCF77FFE0346DAB2184B8D
:104E30001A70184B1B780133DAB2164B1A701BE04C
:104E4000124BB3F85600114BB3F858100F4BB3F890
:104E500054200E4BB3F84E30DBB200240094FCF724
:104E6000D3FD0346DAB20A4B1A700A4B00221A70BD
:104E700002E000BF00E000BF00BF0C37BD46F0BD40
:104E8000768C5ED61300143F980A0020B8090020E3
:104E9000DF070020990A0020E2070020DB0700203E
:104EA000E0070020DA070020E6070020DD070020E9
:104EB000E4070020DC070020280A0020E807002083
:104EC0000000594080B500AF1B4B1C4A1A601A4BBA
:104ED0004FF482725A60184B00229A60164B4FF4BE
:104EE0004072DA60144B00221A61134B00225A619F
:104EF000114B4FF400729A610F4B2822DA610E4B6E
:104F000000221A620C4B00225A620B4B00229A625A
:104F1000094B0722DA62084B00221A63064B08226B
:104F20005A63054804F0BAFF0346002B01D0FFF78F
:104F3000E2F800BF80BD00BF9C0A002000300140A5
:104F400080B58AB000AF786007F1140300221A60C0
:104F50005A609A60DA601A617B681B68174A93424C
:104F600028D1174B1B6E164A43F480531366144B1B
:104F70001B6E03F480533B613B69114BDB6C104AA1
:104F800043F00103D3640E4BDB6C03F00103FB60C1
:104F9000FB68E0237B610223BB610023FB610023EC
:104FA0003B6205237B6207F1140319464FF09040E2
:104FB00002F03AFE00BF2837BD4680BD00300140F8
:104FC0000010024080B582B000AF134B1B6E124A36
:104FD00043F001031366104B1B6E03F001037B606B
:104FE0007B680D4B9B6D0C4A43F0805393650A4BD5
:104FF0009B6D03F080533B603B6800220021012041
:1050000001F0E3FE012001F0FAFE03F0B5FF00BF5E
:105010000837BD4680BD00BF0010024080B400AF1D
:10502000FEE780B400AFFEE780B400AFFEE780B4D7
:1050300000AFFEE780B400AFFEE780B400AF00BF72
:10504000BD465DF8047B704780B400AF00BFBD462D
:105050005DF8047B704780B400AF00BFBD465DF8CB
:10506000047B704780B500AF00F076FB00BF80BDC9
:1050700080B500AF03F026FF00BF80BD80B500AF54
:10508000024802F03BFB00BF80BD00BFE8040020E7
:1050900080B500AF024805F003F800BF80BD00BF37
:1050A000040B002080B500AF024805F09BFE00BF56
:1050B00080BD00BF500B002080B400AF0123184614
:1050C000BD465DF8047B704780B582B000AF786064
:1050D000396008F029F9034616221A604FF0FF33B1
:1050E00018460837BD4680BD80B582B000AF7860F5
:1050F0004FF0FF317868FFF7E7FFFEE780B586B035
:1051000000AFF860B9607A6000237B610AE0AFF31A
:1051100000800146BB685A1CBA60CAB21A707B692B
:1051200001337B617A697B689A42F0DB7B681846C1
:105130001837BD4680BD80B586B000AFF860B96055
:105140007A6000237B6109E0BB685A1CBA601B7857
:105150001846FEF729FF7B6901337B617A697B681A
:105160009A42F1DB7B6818461837BD4680BD80B493
:1051700083B000AF78604FF0FF3318460C37BD4660
:105180005DF8047B704780B483B000AF786039600D
:105190003B684FF400525A60002318460C37BD4656
:1051A0005DF8047B704780B483B000AF7860012362
:1051B00018460C37BD465DF8047B704780B485B057
:1051C00000AFF860B9607A60002318461437BD4616
:1051D0005DF8047B7047000080B586B000AF786052
:1051E000144A154BD31A7B617B693B61134B1B68D7
:1051F000002B02D1114B124A1A60104B1A687B68BF
:1052000013443A699A4207D208F08EF803460C22FA
:105210001A604FF0FF3309E0084B1B68FB60074B37
:105220001A687B681344054A1360FB6818461837F0
:10523000BD4680BD0000022000040000000B0020DD
:10524000C00D002080B400AF064BD3F88830054A6B
:1052500043F47003C2F8883000BFBD465DF8047B9C
:10526000704700BF00ED00E080B588B000AF07F1E7
:10527000100300221A605A609A60DA603B1D002217
:105280001A605A609A60204B4FF080421A601E4BA1
:1052900000225A601C4B00229A601B4B1422DA60D9
:1052A000194B00221A61184B80229A61164804F0AB
:1052B000A0FE0346002B01D0FEF71DFF4FF4005364
:1052C0003B6100237B610023BB610F23FB6107F17E
:1052D000100319460C4805F063F80346002B01D073
:1052E000FEF709FF00237B600023FB603B1D19468E
:1052F000054805F0E1FA0346002B01D0FEF7FBFE5E
:1053000000BF2037BD4680BD040B002080B58AB0A9
:1053100000AF786007F1140300221A605A609A60A7
:10532000DA601A617B681B68B3F1804F31D11B4B87
:105330009B6D1A4A43F001039365184B9B6D03F074
:1053400001033B613B69154BDB6C144A43F00103DD
:10535000D364124BDB6C03F00103FB60FB684FF47A
:1053600000437B610223BB610023FB6100233B629E
:105370000E237B6207F1140319464FF0904002F0B0
:1053800053FC002200211C2001F01FFD1C2001F015
:1053900036FD00BF2837BD4680BD00BF001002406B
:1053A00080B500AF224B234A1A60214B224A5A6033
:1053B0001F4B00229A601E4B0022DA601C4B002219
:1053C0001A611B4B0C225A61194B00229A61184B2F
:1053D0000022DA61164B00221A62154B00225A6233
:1053E000134B00229A62124805F042FB0346002B41
:1053F00001D0FEF780FE00210D4806F0DAFD0346DD
:10540000002B01D0FEF777FE0021094806F00FFEC1
:105410000346002B01D0FEF76EFE054806F090FD16
:105420000346002B01D0FEF766FE00BF80BD00BF23
:10543000500B0020004C004090D0030080B500AF1E
:10544000224B234A1A60214B224A5A601F4B0022EA
:105450009A601E4B0022DA601C4B00221A611B4B23
:105460000C225A61194B00229A61184B0022DA6112
:10547000164B00221A62154B00225A62134B00226F
:105480009A62124805F0F4FA0346002B01D0FEF7A9
:1054900032FE00210D4806F08CFD0346002B01D0A2
:1054A000FEF729FE0021094806F0C1FD0346002B46
:1054B00001D0FEF720FE054806F042FD0346002B12
:1054C00001D0FEF718FE00BF80BD00BFE00B00203A
:1054D0000050004090D0030080B5A2B000AF7860CB
:1054E00007F1740300221A605A609A60DA601A6148
:1054F00007F1200354220021184607F0C3FE7B6801
:105500001B68524A934241D108233B6200233B630C
:1055100007F12003184604F073FA0346002B01D06C
:10552000FEF7E9FD4A4B9B6D494A43F4002393651E
:10553000474B9B6D03F40023FB61FB69444BDB6C21
:10554000434A43F00403D364414BDB6C03F0040390
:10555000BB61BB694FF440637B670223BB670023D9
:10556000FB670023C7F880300523C7F8843007F1B4
:1055700074031946374802F057FB002200213420FB
:1055800001F023FC342001F03AFC5BE07B681B68EF
:10559000314A934256D110233B6200237B6307F1CB
:1055A0002003184604F02CFA0346002B01D0FEF726
:1055B000A2FD274B9B6D264A43F480139365244B31
:1055C0009B6D03F480137B617B69214BDB6C204A6C
:1055D00043F00403D3641E4BDB6C03F004033B6114
:1055E0003B691B4BDB6C1A4A43F00803D364184B2E
:1055F000DB6C03F00803FB60FB684FF480537B67B0
:105600000223BB670023FB670023C7F88030052314
:10561000C7F8843007F1740319460E4802F004FB02
:1056200004237B670223BB670023FB670023C7F8C3
:1056300080300523C7F8843007F174031946074802
:1056400002F0F2FA00BF8837BD4680BD004C004032
:10565000001002400008004800500040000C0048C4
:105660000D4885460D480E490E4A002302E0D458E5
:10567000C4500433C4188C42F9D30B4A0B4C00239A
:1056800001E013600432A242FBD3FFF7DBFD07F019
:1056900051FEFEF79BFCFEE7000002200000002008
:1056A000D8010020E8190108D8010020C00D002011
:1056B000FEE780B582B000AF0023FB71032001F04C
:1056C00079FB0F2000F00EF80346002B02D00123D7
:1056D000FB7101E0FFF776FCFB7918460837BD4601
:1056E00080BD000080B584B000AF78600023FB73FC
:1056F000164B1B68002B22D0154B1A68134B1B68E6
:105700004FF47A71B1FBF3F3B2FBF3F3184601F0F7
:1057100084FB0346002B0FD17B680F2B09D8002296
:1057200079684FF0FF3001F050FB0A4A7B68136044
:1057300007E00123FB7304E00123FB7301E0012375
:10574000FB73FB7B18461037BD4680BD0C00002064
:10575000040000200800002080B400AF054B1A6848
:10576000054B1B681344034A136000BFBD465DF838
:10577000047B7047700C00200C00002080B400AF48
:10578000034B1B681846BD465DF8047B704700BF9D
:10579000700C002080B584B000AF7860FFF7EEFF9A
:1057A000B8607B68FB60FB68B3F1FF3F04D0094B36
:1057B0001B68FA681344FB6000BFFFF7DFFF024677
:1057C000BB68D31AFA689A42F7D800BF00BF1037F7
:1057D000BD4680BD0C00002080B483B000AF78606F
:1057E00039607B689B6823F47C123B681A437B68B2
:1057F0009A6000BF0C37BD465DF8047B704780B4EB
:1058000083B000AF786039607B689B6823F0E072FA
:105810003B681A437B689A6000BF0C37BD465DF851
:10582000047B704780B483B000AF78607B689B686E
:1058300003F0E07318460C37BD465DF8047B7047F3
:1058400080B487B000AFF860B9607A603B60FB68F5
:1058500060331A46BB689B0013447B617B691A68FE
:10586000084B13407A6802F0F8413A680A43134340
:1058700043F000427B691A6000BF1C37BD465DF8EB
:10588000047B704700F0FF0380B485B000AF786000
:1058900039607B6860331A463B689B001344FB60A9
:1058A000FB681B6803F0F84318461437BD465DF8E3
:1058B000047B704780B487B000AFF860B9607A604D
:1058C000FB6860331A46BB689B0013447B617B69AD
:1058D0001B6823F000427B681A437B691A6000BF93
:1058E0001C37BD465DF8047B704780B487B000AFBD
:1058F000F860B9607A60FB6860331A46BB689B0049
:1059000013447B617B691B6823F080727B681A43B8
:105910007B691A6000BF1C37BD465DF8047B704789
:1059200080B487B000AFF860B9607A60FB6860331C
:105930001A46BB689B0013447B617B691B6823F09C
:1059400000727B681A437B691A6000BF1C37BD4632
:105950005DF8047B704780B483B000AF7860396035
:105960007B685B6923F000423B681A437B685A619D
:1059700000BF0C37BD465DF8047B704780B487B02C
:1059800000AFF860B9607A60FB6830331A46BB68D4
:105990001B0A9B0003F00C0313447B617B691A68AC
:1059A000BB6803F01F031F2101FA03F3DB431A4016
:1059B0007B689B0E03F01F01BB6803F01F0301FA15
:1059C00003F31A437B691A6000BF1C37BD465DF8BC
:1059D000047B704780B487B000AFF860B9607A602C
:1059E000FB6814331A46BB685B0E9B0003F004038C
:1059F00013447B617B691A68BB681B0D03F01F03AE
:105A0000072101FA03F3DB431A40BB681B0D03F0C7
:105A10001F03796801FA03F31A437B691A6000BF18
:105A20001C37BD465DF8047B7047000080B485B02C
:105A300000AFF860B9607A607B680F4A93420AD180
:105A4000FB68D3F8B020BB68C3F312031A43FB68AA
:105A5000C3F8B0200AE0FB68D3F8B020BB68C3F3FA
:105A60001203DB431A40FB68C3F8B02000BF1437B1
:105A7000BD465DF8047B704700007F4080B483B072
:105A800000AF78607B689B6823F0204323F03F03DE
:105A90007A68936000BF0C37BD465DF8047B7047A1
:105AA00080B483B000AF78607B689B6803F00053DC
:105AB000B3F1005F01D1012300E0002318460C3749
:105AC000BD465DF8047B704780B483B000AF78605A
:105AD0007B689B6823F0104323F03F0343F0805220
